:020000040800F2
:1000000000000220853F0008353A0008373A000812
:10001000393A00083B3A00083D3A00080000000069
:100020000000000000000000000000003F3A00084F
:10003000413A000800000000433A0008453A000831
:10004000D53F0008D53F0008D53F0008D53F000840
:10005000D53F0008D53F0008D53F0008D53F000830
:10006000D53F0008D53F0008D53F0008D53F000820
:10007000D53F0008D53F0008D53F0008D53F000810
:10008000D53F0008D53F0008D53F0008D53F000800
:10009000D53F0008D53F0008D53F0008D53F0008F0
:1000A000D53F0008D53F0008D53F0008D53F0008E0
:1000B000D53F0008D53F0008D53F0008D53F0008D0
:1000C000D53F0008D53F0008D53F0008D53F0008C0
:1000D000D53F0008D53F0008D53F0008D53F0008B0
:1000E000D53F0008D53F0008D53F0008D53F0008A0
:1000F000D53F0008D53F0008D53F0008D53F000890
:10010000D53F0008D53F0008D53F0008D53F00087F
:10011000D53F0008D53F0008D53F0008D53F00086F
:10012000D53F0008D53F0008D53F0008D53F00085F
:10013000D53F00080000000000000000D53F000887
:10014000D53F0008D53F0008D53F00084D3A0008CC
:10015000D53F0008D53F0008D53F0008D53F00082F
:10016000D53F0008D53F0008D53F0008D53F00081F
:10017000D53F0008D53F0008D53F0008000000002B
:1001800000000000D53F0008000000000000000053
:10019000D53F00080000000000000000D53F000827
:1001A000000000000000000000000000D53F000833
:1001B000D53F0008D53F0008D53F0008D53F0008CF
:0401C000D53F00081F
:1001C40010B5054C237833B9044B13B10448AFF38D
:1001D40000800123237010BDD40100200000000022
:1001E4000C42000808B5034B1BB103490348AFF3A5
:1001F400008008BD00000000D80100200C42000867
:1002040053B94AB9002908BF00281CBF4FF0FF3179
:100214004FF0FF3000F072B9ADF1080C6DE904CE77
:1002240000F006F8DDF804E0DDE9022304B07047CD
:100234002DE9F047089E04468846002B4BD18A429C
:10024400154667D9B2FA82F24AB1C2F1200701FA1F
:1002540002F320FA07F7954047EA030894404FEA6F
:10026400154E230CB8FBFEF71FFA85FC0EFB17880E
:1002740043EA084307FB0CF1994209D9EB1807F14B
:10028400FF3080F01B81994240F21881023F2B44D9
:100294005B1AA4B2B3FBFEF00EFB103344EA034432
:1002A40000FB0CFCA44509D92C1900F1FF3380F0A4
:1002B4000781A44540F2048102382C4440EA0740F7
:1002C400A4EB0C0400271EB1D4400023C6E900436C
:1002D4003946BDE8F0878B4209D9002E00F0EB8047
:1002E4000027C6E9000138463946BDE8F087B3FA6D
:1002F40083F7002F47D18B4202D3824200F2FA8067
:10030400841A61EB030301209846002EE0D0C6E96D
:100314000048DDE702B9FFDEB2FA82F2002A40F0BB
:100324008F80491B4FEA154E1FFA85F80127B1FB50
:10033400FEFC230C0EFB1C1143EA014308FB0CF1E9
:10034400994207D9EB180CF1FF3002D2994200F21E
:10035400CD808446591AA3B2B1FBFEF00EFB1014F3
:1003640043EA044408FB00F8A04507D92C1900F11E
:10037400FF3302D2A04500F2B6801846A4EB08046D
:1003840040EA0C409FE7C7F1200CBB4022FA0CFE68
:100394004EEA030E01FA07F420FA0CF521FA0CF3E5
:1003A4004FEA1E482543B3FBF8F92C0C08FB19331C
:1003B4001FFA8EFA44EA034309FB0AF49C4202FA48
:1003C40007F200FA07F10BD91EEB030309F1FF3022
:1003D40080F087809C4240F28480A9F10209734432
:1003E4001B1BADB2B3FBF8F008FB103345EA034422
:1003F40000FB0AFAA24508D91EEB040400F1FF33FE
:100404006BD2A24569D90238744440EA0940A0FB82
:100414000289A4EB0A044C45C2464B4654D351D03E
:10042400002E69D0B1EB0A0564EB030404FA0CFC5A
:10043400FD40FC404CEA0505C6E90054002747E7A7
:10044400C2F1200320FA03F7954001FA02F021FAE1
:1004540003F34FEA154E3843010CB3FBFEF71FFAC2
:1004640085F80EFB173341EA034107FB08F38B427F
:1004740004FA02F407D9691807F1FF3C2FD28B4222
:100484002DD9023F2944CB1A81B2B3FBFEF00EFBF7
:10049400103341EA034100FB08F38B4207D9691882
:1004A40000F1FF3C17D28B4215D902382944C91AEE
:1004B40040EA07473BE73746304609E70746E7E6A1
:1004C4001846FBE64145ABD2B8EB020A69EB0E02D3
:1004D40001381346A4E76046E9E7184695E76746FE
:1004E400D1E781467CE702382C4447E7ACF1020CA3
:1004F4002B442FE7384608E73746E9E6704700BF44
:1005040010B504460E4B18784FF47A73B3FBF0F32E
:100514000C4A1068B0FBF3F000F0A8F868B90F2C8F
:1005240001D901200AE0002221464FF0FF3000F0FB
:100534005DF8034B5C60002000E0012010BD00BFAB
:10054400000000201801002008B50B4B1A6842F483
:1005540000721A601A6842F480621A601A6842F4DF
:1005640080721A60032000F02FF80020FFF7C8FF04
:1005740003F004FA002008BD003C0240034A11685D
:10058400034B1B780B441360704700BF0402002028
:1005940000000020014B1868704700BF04020020CF
:1005A40038B50446FFF7F6FF0546B4F1FF3F02D025
:1005B400044B1B781C44FFF7EDFF401BA042FAD309
:1005C40038BD00BF00000020074AD36823F4E0636D
:1005D4001B041B0C000200F4E060184340F0BF60F1
:1005E40040F40030D060704700ED00E030B4174BA9
:1005F400DB68C3F30223C3F10704042C28BF0424DB
:100604001D1D062D18D9033B4FF0FF3505FA04F4E0
:1006140021EA0401994005FA03F322EA030319438A
:1006240000280BDB0901C9B200F1604000F561400C
:1006340080F8001330BC70470023E5E700F00F009A
:100644000901C9B2024B1954F4E700BF00ED00E000
:1006540014ED00E000F01F02400901239340024A18
:1006640042F82030704700BF00E100E00138B0F1EB
:10067400807F0AD2064B5860064AF02182F8231084
:100684000020986007221A6070470120704700BF5D
:1006940010E000E000ED00E000230F2B00F2D18019
:1006A400F0B482B039E0062200E00022B2403A43BE
:1006B4000234644E46F82420634A1468EA4302EA8A
:1006C40004064F6817F4803F01D045EA04065E4CE7
:1006D4002660646802EA04064F6817F4003F01D0FC
:1006E40045EA0406584C6660A46802EA04064F68AA
:1006F40017F4801F01D045EA0406534CA660E46851
:1007040022404E6816F4001F01D045EA04024E4C04
:10071400E26001330F2B00F2918001229A400C68B1
:1007240004EA0205AA42F4D14C68022C01D0122C2E
:1007340010D1DE08083650F826C003F00704A700DD
:100744000F24BC402CEA040C0C69BC4044EA0C04A1
:1007540040F8264004685F000326BE40F64306EADC
:10076400040C4C6804F00304BC4044EA0C04046028
:100774004C6804F1FF3CBCF1010F03D9112C01D0EA
:10078400122C10D1846806EA040CCC68BC4044EAFC
:100794000C048460446824EA02024C68C4F3001424
:1007A4009C4014434460C26816408A68BA4032438D
:1007B400C2604A6812F0805FABD000220192234AE3
:1007C400546C44F480445464526C02F480420192A8
:1007D400019A9C08A61C1B4A52F8267003F00302D7
:1007E40096000F22B24027EA0207194A90423FF4CA
:1007F4005CAF02F58062904216D002F580629042AE
:1008040014D002F58062904212D002F580629042C8
:1008140010D002F5806290420ED002F580629042C0
:100824003FF441AF072241E701223FE702223DE7BF
:1008340003223BE7042239E7052237E702B0F0BC84
:100844007047704700380140003C014000380240C6
:100854000000024012B90904816170478161704748
:100864002DE9F04383B007460D46D0F80080CA0056
:10087400521A93000344DE6C1A6DB61A1B6C9E4226
:1008840000D91E4606F103094FEA990915E006F15D
:1008940003094FEA9909EB005B1B9C003C44616C23
:1008A4003B7C0093B3B2EAB2404602F0F7F8636CC3
:1008B40033446364236D33442365414608EB451395
:1008C40003F510639B699BB24B4512D9EA00521B96
:1008D40093003B441A6DDB6C9A420AD24BB19E1AC8
:1008E400C5EBC50293003B441B6C9E42CFD91E4608
:1008F400CDE73EB90123AB40D1F8345825EA0305CE
:10090400C1F83458002003B0BDE8F083002872D049
:10091400F0B58BB00446032380F8B93303F032F901
:10092400206801F000FD254655F8107B6E460FCD7A
:100934000FC60FCD0FC695E8030086E80300231DFC
:100944000ECB384601F0ABFC0021206801F0F1FC2D
:10095400002210E0D100891A8B002344012183F87E
:10096400391083F83820DA87002183F83B101964A2
:100974005964D96401320E2AECD9002218E0D1005E
:10098400891A8B002344002183F8F91183F8F82194
:10099400DA8783F8FB11C3F80012C3F80412C3F812
:1009A4000C12236802F1400003EB8003596001320A
:1009B4000E2AE4D9254655F8107B6E460FCD0FC696
:1009C4000FCD0FC695E8030086E80300231D0ECB68
:1009D400384601F0C5FC012384F8B933636A012B5E
:1009E40005D0206802F005F900200BB0F0BD2046C8
:1009F40000F084FCF5E70120704790F8B833012B30
:100A04000ED010B50446012380F8B833006802F014
:100A1400E4F8206801F081FC002084F8B80310BDDC
:100A2400022070472DE9F04704460568284602F085
:100A34001BF908B1BDE8F0870646206802F0E5F826
:100A44000028F7D0206802F0E0F810F0020F04D07C
:100A54002268536903F002035361206802F0D5F859
:100A640010F4002F40F092803746206802F0CDF851
:100A740010F4802F40F0F680206802F0C6F80028B9
:100A8400C0F26281206802F0C0F810F4006F0AD04E
:100A9400D5F8083813F0010F40F0708122685369CB
:100AA40003F400635361206802F0AFF810F0006FA4
:100AB40015D02268536903F00063536194F8EC3352
:100AC400002B40F05F81012184F8EC1323685B6DF7
:100AD400C3F38303C4F8F033204603F0B7F9206866
:100AE40002F093F810F4805F40F05081206802F027
:100AF4008CF810F4005F40F09981206802F085F8CA
:100B040010F0100F14D02268936923F0100393613E
:100B14002E6A06F00F08C6F34343022B00F01A8234
:100B2400062B00F038822268936943F01003936126
:100B3400206802F06AF810F0080F40F04082206844
:100B440002F063F810F4801F40F04282206802F043
:100B54005CF810F4001F40F04582206802F055F85C
:100B640010F0804F40F04882206802F04EF810F0F8
:100B7400040F3FF45FAF23685D6815F0040F40F085
:100B84004482226853682B43536053E7206802F081
:100B940040F88046374629E0F900C91B8A00224400
:100BA400D2F800121B69C3F31203C91AC2F8101257
:100BB400D2F80012D2F804320B44C2F8043230E006
:100BC40019F0080F45D119F0100F04D005EB4713A5
:100BD4001022C3F8082B19F0200F04D005EB47139B
:100BE4002022C3F8082B01374FEA5808B8F1000F48
:100BF4003FF43BAF18F0010FF5D05FFA87FA514686
:100C0400206802F016F8814610F0010FD8D005EBE9
:100C140047130122C3F8082B03F530632269012A24
:100C2400BAD05146204602F0E9FF2369012BC7D10F
:100C3400002FC5D1C7EBC70293002344D3F80C326D
:100C4400002BBDD104F56F720121206802F02CF84D
:100C5400B6E7204602F0CAFF05EB47130822C3F8A3
:100C6400082BB0E7206801F0DCFF804637462EE011
:100C7400FA00D21B93002344196C5A6C0A445A6438
:100C840046E019F0080F04D005EB47130822C3F817
:100C9400082919F0100F04D005EB47131022C3F8EC
:100CA400082919F0400F04D005EB47134022C3F87C
:100CB400082919F0020F04D005EB47130222C3F8E8
:100CC400082919F0800F3AD101374FEA5808B8F1D2
:100CD400000F3FF4D1AE18F0010FF5D05FFA87FA98
:100CE4005146206801F0AEFF814610F0010FC8D0D4
:100CF400012202FA07F0D5F8343823EA0003C5F8D4
:100D0400343805EB4713C3F8082923699342AFD05D
:100D14005146204602F07EFF2369012BB1D1002FFA
:100D2400AFD1C7EBC70293002344DB6C002BA8D1DF
:100D340004F56F720121206801F0B6FFA1E739467E
:100D44002046FFF78DFDBFE7D5F8043823F00103F3
:100D5400C5F8043894F8EC33012B08D0204602F08F
:100D640093FF2268536903F0004353618AE600212C
:100D740084F8EC13204603F069F8F2E7204602F009
:100D84006BFF8BE6204602F067FFA8E6A94605F54F
:100D94000068D8F8043023F00103C8F804301021A7
:100DA400206801F08BFB07E009EB4613FF22C3F830
:100DB4000829C3F8082B01366368B342F4D84FF00E
:100DC400FF33C8F81830D8F81C3043F00113C8F8C2
:100DD4001C30236BEBB1D8F8843043F00B03C8F814
:100DE4008430D8F8443043F00B03C8F84430D5F8C5
:100DF400003823F4FE63C5F8003804F56F72217CD3
:100E0400206801F051FF2268536903F48053536151
:100E14006CE6D8F8143043F02B03C8F81430D8F833
:100E2400103043F00B03C8F81030E0E7206801F0FD
:100E34001FFF2268D36823F47053D360206801F045
:100E44006AFB90B90023E3604FF400736361226886
:100E5400D36843F41053D360204602F0ECFE2268BA
:100E6400536903F40053536147E60323E3604023CB
:100E7400636100F043FB674B0344674A934205D820
:100E84002268D36843F47053D360E5E7634B0344AB
:100E9400634A934205D82268D36843F46053D3600D
:100EA400DAE7A0F57403A3F510535E4A934205D81C
:100EB4002268D36843F45053D360CDE7A0F1837321
:100EC400A3F5E743584A934205D82268D36843F40C
:100ED4004053D360C0E7554B0344554A934205D869
:100EE4002268D36843F43053D360B5E7514B0344CD
:100EF400514A934205D82268D36843F42053D360FF
:100F0400AAE74E4B03444E4A934205D82268D3685D
:100F140043F41053D3609FE7A0F1B773A3F558537C
:100F2400484A934205D82268D36843F40053D360F7
:100F340092E7454B0344454A934205D82268D36857
:100F440043F4E053D36087E72268D36843F4C05383
:100F5400D36081E747F6F0731E423FF4E4AD3609EF
:100F64004FEAC80AAAEB08034FEA8309A144C6F36F
:100F74000A02D9F80412284601F0A4FDC6F30A06B1
:100F8400D9F804323344C9F80432D9F810321E4473
:100F9400C9F81062C7E5082204F56F71284601F00C
:100FA40091FDC6F30A164FEAC803A3EB08018A00B1
:100FB4002244D2F810321E44C2F81062B3E520462F
:100FC40002F033FE2268536903F008035361B6E567
:100FD400F9B2204602F064FE2268536903F48013D8
:100FE4005361B3E5F9B2204602F054FE2268536916
:100FF40003F400135361B0E5204602F057FE226863
:10100400536903F080435361AEE5204602F054FE79
:10101400B7E500BF405327FFFF340C00401E1BFF01
:101024003F420F007F4F12001FD6130060B6E5FE4B
:101034005FE3160000D3CEFE3F771B00C05BB3FE18
:10104400BF9121001F753800E05459FEDF9C410018
:1010540090F8B833012B0BD010B50446012380F867
:10106400B833006801F0A9FD002084F8B80310BD6E
:101074000220704770B54DB2002D22DB01F07F06CF
:10108400C6EBC606B40004F5FC74044401F07F0109
:101094002170ED0F6570A260E37005B1E180022B51
:1010A40017D090F8B833012B16D00546012380F8E9
:1010B400B8332146006801F04EFA002085F8B803E1
:1010C40070BD01F07F06C6EBC606B4003834044494
:1010D400DCE700232371E4E70220F1E710B54AB20C
:1010E400002A1CDB01F07F04C4EBC404A30003F555
:1010F400FC73034401F07F011970D20F5A7090F809
:10110400B823012A13D00446012280F8B8231946D3
:10111400006801F069FA002084F8B80310BD01F0FA
:101124007F04C4EBC404A30038330344E2E7022081
:10113400F4E770B501F07F06F500A91B8C0004F5F7
:10114400FC740119AD1BAC000444C4F80422C4F8B7
:101154000C320023C4F8103284F8F93184F8F861B1
:101164000369012B06D066B1DAB2006801F0B4FA63
:10117400002070BDC6EBC605AC000444C4F80822C8
:10118400F1E7DAB2006801F0D9FBF1E701F00F01F1
:10119400C1EBC1018B001844B0F81002704770B560
:1011A40001F07F06F500A91B8C0038340119AD1B32
:1011B400AC0004446264E36400232365012384F8DF
:1011C400393084F838600369012B06D05EB1DAB295
:1011D400006801F081FA002070BDC6EBC605AC00C2
:1011E4000444A264F2E7DAB2006801F0A7FBF2E774
:1011F40038B54AB2002A1DDBC1EBC104A30003F5D4
:10120400FC73034401249C7001F07F041C70D20F12
:101214005A7090F8B823012A1BD00546012280F8A1
:10122400B8231946006801F061FC5CB1002085F820
:10123400B80338BD01F07F04C4EBC404A300383301
:101244000344DFE705F56F72297C286801F02CFD63
:10125400ECE70220EDE710B54AB2002A1CDBC1EB33
:10126400C104A30003F5FC73034400249C7001F043
:101274007F011970D20F5A7090F8B823012A13D045
:101284000446012280F8B8231946006801F060FC86
:10129400002084F8B80310BD01F07F04C4EBC4043B
:1012A400A30038330344E0E70220F4E730B40468D1
:1012B400606A29B10D46A36A00EB134000230CE0D9
:1012C40040EA0240A06212E003F1400104EB810114
:1012D400496800EB11400133DBB2691E8B42F3DB3A
:1012E40040EA024005F13F0104EB8101486000201F
:1012F40030BC704703685962002070470346026897
:101304000121C0F8F413002083F8EC03936943F03F
:1013140000639361536D43F0805343F003035365BB
:101324007047000010B582B000230193194B1A6C6A
:1013340042F080521A641B6C03F080530193019BAA
:10134400154B01221A60FFF725F90446134B5B681D
:1013540013F4803F08D1FFF71DF9001BB0F57A7F25
:10136400F4D9032002B010BD0D4B01221A60FFF71F
:1013740011F90446094B5B6813F4003F07D1FFF7EA
:1013840009F9001BB0F57A7FF4D90320EAE70020BD
:10139400E8E700BF0038024040000E420070004001
:1013A40044000E42002800F09D8070B504464F4B67
:1013B4001B6803F00F038B4209D2CBB24B4A137064
:1013C400136803F00F038B4201D0012070BD236822
:1013D40013F0020F17D013F0040F04D0444A93689B
:1013E40043F4E0539360236813F0080F04D0404A99
:1013F400936843F4604393603D4A936823F0F00399
:10140400A068034393600D46236813F0010F32D0A4
:101414006368012B21D09A1E012A25D9344A126807
:1014240012F0020F60D032498A6822F0030213439B
:101434008B60FFF7AFF806462D4B9B6803F00C0357
:101444006268B3EB820F16D0FFF7A4F8801B41F259
:1014540088339842F0D90320B8E7254A126812F479
:10146400003FE0D10120B1E7214A126812F0007F69
:10147400D9D10120AAE71D4B1B6803F00F03AB422F
:1014840009D9EAB2194B1A701B6803F00F03AB4277
:1014940001D001209AE7236813F0040F06D0144A00
:1014A400936823F4E053E1680B439360236813F0DB
:1014B400080F07D00E4A936823F46043216943EA76
:1014C400C103936000F07EFA094B9B68C3F30313D6
:1014D400084AD35CD840084B18600020FFF710F886
:1014E400002073E70120704701206FE7003C0240B1
:1014F400003802402442000818010020014B1868FB
:10150400704700BF1801002008B5FFF7F7FF044B30
:101514009B68C3F38223034AD35CD84008BD00BF51
:10152400003802403442000808B5FFF7E7FF044BD7
:101534009B68C3F34233034AD35CD84008BD00BF61
:101544000038024034420008F0B583B00446036812
:1015540013F0010F0CD0964AD2F88C3023F0C063FC
:10156400816B0B43C2F88C30836B3BB3002600E0E5
:101574000026236813F0020F0BD08D4AD2F88C306A
:1015840023F0C053E16B0B43C2F88C30E36B03B917
:101594000126236813F0040F14D0854AD2F88C3046
:1015A40023F44013216B0B43C2F88C30236BB3F547
:1015B400801F05D0002B7BD0002504E00126D8E74E
:1015C4000126F7E70025236813F0080F0ED0784AA8
:1015D400D2F88C3023F44003616B0B43C2F88C3097
:1015E400636BB3F5800F65D003B90125236813F04D
:1015F400200F61D1236813F0100F03D094F8582002
:101604006C4B1A60236813F0800F08D0684AD2F834
:10161400943023F44003E16C0B43C2F89430236804
:1016240013F0400F08D0624AD2F8943023F080635C
:10163400A16C0B43C2F89430236813F4807F0DD05F
:101644005B4AD2F8943023F00063616D0B43C2F817
:101654009430636DB3F1006F00F09580236813F448
:10166400007F08D0524AD2F8943023F08053616C42
:101674000B43C2F89430236813F4806F0CD04C4AA7
:10168400D2F8943023F00053216D0B43C2F8943008
:10169400236DB3F1005F78D0002E76D12368B3F5C3
:1016A400006F72D0002D40F02281002003B0F0BD05
:1016B400012588E7012697E7002301933C4B1A6C28
:1016C40042F080521A641B6C03F080530193019B17
:1016D400394A136843F480731360FEF75BFF0746CF
:1016E400354B1B6813F4807F06D1FEF753FFC01BF4
:1016F4000228F5D90320D9E72D4B1B6F13F440734F
:1017040012D0226C02F440729A420DD0284B1A6F08
:1017140022F44072294901200860002008601A67F9
:101724001B6F13F0010F12D1236C03F44072B2F556
:10173400407F1DD01E4A936823F4F81393601C491C
:101744000B6F226CC2F30B0213430B6752E7FEF7D5
:1017540021FF0746164B1B6F13F0020FE4D1FEF76F
:1017640019FFC01B41F288339842F3D903209DE747
:101774000F498A6822F4F81223F0704323F440736B
:1017840013438B60DBE7012568E70D4B00221A60E9
:10179400FEF700FF0646064B1B6813F0006F11D0DE
:1017A400FEF7F8FE801B0228F5D903207EE700BF70
:1017B40000380240E011474200700040400E4742AA
:1017C40068004742236813F0010F01D0A26B22B1D5
:1017D40013F0020F15D0E36B9BB9774AD2F884005B
:1017E400D2F884106368A66843EA861300F4403094
:1017F400034301F070610B43616943EA0173C2F86A
:101804008430236813F0040F03D0226BB2F5801FD9
:1018140006D013F0080F20D0636BB3F5800F1CD1F2
:10182400654AD2F88400D2F884106368A66843EA53
:10183400861300F440300343206943EA006301F057
:10184400E0410B43C2F88430D2F88C3023F01F03FC
:10185400A16A01390B43C2F88C30236813F4806FFA
:1018640003D0236DB3F1005F28D0236813F4006F15
:1018740011D06368A26843EA8213E2685208013A0D
:1018840043EA0243226943EA0263626943EA027358
:10189400494AC2F88430494B01221A60FEF77AFEA5
:1018A4000646454B1B6813F0006F7FF4FBAEFEF752
:1018B40071FE801B0228F4D90320F7E63E48D0F8D5
:1018C4008430C3F301435A1CD0F884606368A16870
:1018D40043EA8113E1684908013943EA014343EAD1
:1018E400426306F0E0421343C0F88430BDE7344B52
:1018F40000221A60FEF74EFE05462F4B1B6813F0BC
:10190400005F06D0FEF746FE401B0228F5D90320EF
:10191400CCE6236813F0040F01D0226B22B113F03C
:10192400080F1AD0636BC3B9234AD2F88810A3698D
:10193400E06943EA801301F440310B43616A43EAEE
:101944000163C2F88830D2F88C3023F4F853E16A8A
:10195400013943EA0123C2F88C30236813F4807FF1
:1019640003D0636DB3F1006F11D0154B01221A60DF
:10197400FEF710FE0446104B1B6813F0005F18D1ED
:10198400FEF708FE001B0228F5D903208EE60A485C
:10199400D0F88810A369E26943EA8213226A5208E4
:1019A400013A43EA024301F070621343C0F88830FD
:1019B400DBE700207AE600BF0038024068004742B7
:1019C400700047422DE9F04B5C4B9B6803F00C031D
:1019D400082B07D00C2B5BD0042B00F0AD805848AB
:1019E400BDE8F08B554B5A6802F03F025B6813F474
:1019F400800F2AD0514B5B68C3F388131E4600271F
:101A04005C010025E41A65EB0705A90141EA94612C
:101A1400A001001B61EB0501CB0043EA5073C40035
:101A2400A01943EB07014B0243EAD053440220467A
:101A340019460023FEF7E4FB404B5B68C3F3014304
:101A440001335B00B0FBF3F0CAE73C4B5B68C3F3C4
:101A540088131E4600275C010025E41A65EB070580
:101A6400A90141EA9461A001001B61EB0501CB00CF
:101A740043EA5073C400A01943EB07018B0243EA05
:101A840090538402204619460023FEF7B9FBD3E79E
:101A94002A4B5A6802F03F025B6813F4800F28D087
:101AA400264B5B68C3F388131E4600275C010025A0
:101AB400E41A65EB0705A90141EA9461A001001B42
:101AC40061EB0501CB0043EA5073C400A01943EB5A
:101AD40007014B0243EAD05344022046194600232F
:101AE400FEF78EFB154B5B68C3F30273B0FBF3F098
:101AF40076E7124B5B68C3F388131E4600275C012C
:101B04000025E41A65EB0705A90141EA9461A001E7
:101B1400001B61EB0501CB0043EA5073C400A0191C
:101B240043EB07018B0243EA905384022046194693
:101B34000023FEF765FBD5E7024851E70038024071
:101B44000024F40000127A0070B582B004460368E1
:101B540013F0010F41D0A64B9B6803F00C03042B38
:101B640032D0A34B9B6803F00C03082B27D0A04B67
:101B74009B6803F00C030C2B59D06368B3F5803FCA
:101B84005BD0B3F5A02F5ED0994B1A6822F4803253
:101B94001A601A6822F480221A606368002B5CD0F1
:101BA400FEF7F8FC0546924B1B6813F4003F14D172
:101BB400FEF7F0FC401B6428F5D903209DE18C4B13
:101BC4005B6813F4800FD2D0894B1B6813F4003F79
:101BD40003D06368002B00F08D81236813F0020F9B
:101BE40067D0834B9B6813F00C0F4AD0804B9B68E3
:101BF40003F00C03082B3FD07D4B9B6803F00C03D0
:101C04000C2B48D0E368002B74D07A4B01221A6065
:101C1400FEF7C0FC0546764B1B6813F0020F60D13B
:101C2400FEF7B8FC401B0228F5D9032065E1704B90
:101C34005B6813F4800FA0D0C6E76D4A136843F4C1
:101C440080331360A9E76A4B1A6842F480221A6051
:101C54001A6842F480321A609FE7FEF79BFC05463F
:101C6400634B1B6813F4003FB7D0FEF793FC401B93
:101C74006428F5D9032040E15D4B5B6813F4800FC1
:101C8400BAD15B4B1B6813F0020F0AD0E368012B37
:101C940007D0012031E1564B5B6813F4800FB1D1BA
:101CA400EFE7534A136823F0F803216943EAC103B9
:101CB4001360236813F0080F40D0636963B34E4B7D
:101CC40001221A60FEF766FC0546494B5B6F13F070
:101CD400020F33D1FEF75EFC401B0228F5D9032026
:101CE4000BE1434A136823F0F803216943EAC10373
:101CF4001360DEE73F4B00221A60FEF74BFC0546FB
:101D04003B4B1B6813F0020FD3D0FEF743FC401B80
:101D14000228F5D90320F0E0374B00221A60FEF7C1
:101D240039FC0546324B5B6F13F0020F06D0FEF709
:101D340031FC401B0228F5D90320DEE0236813F0B0
:101D4400040F79D02A4B1B6C13F0805F33D100232E
:101D54000193274B1A6C42F080521A641B6C03F0F7
:101D640080530193019B0125244B1B6813F4807F4E
:101D740023D0A368012B34D0052B41D01C4B1A6F00
:101D840022F001021A671A6F22F004021A67A3688C
:101D9400002B3FD0FEF7FEFB0646154B1B6F13F0DE
:101DA400020F48D1FEF7F6FB801B41F288339842BC
:101DB400F3D90320A1E00025D6E7104A136843F4C1
:101DC40080731360FEF7E6FB06460C4B1B6813F4A6
:101DD400807FCED1FEF7DEFB801B0228F5D90320DD
:101DE4008BE0034A136F43F001031367CFE700BF8F
:101DF4000038024000004742800E47420070004015
:101E0400404B1A6F42F004021A671A6F42F0010243
:101E14001A67BCE7FEF7BEFB06463A4B1B6F13F08E
:101E2400020F08D0FEF7B6FB801B41F288339842BC
:101E3400F3D9032061E0E5B9A369002B5CD0314AF2
:101E4400926802F00C02082A59D0022B17D02E4BAC
:101E540000221A60FEF79EFB04462A4B1B6813F00F
:101E6400007F45D0FEF796FB001B0228F5D903201E
:101E740043E0244A136C23F080531364DCE7224BC1
:101E840000221A60FEF786FB05461E4B1B6813F002
:101E9400007F06D0FEF77EFB401B0228F5D9032005
:101EA4002BE0E369226A1343626A43EA8213A26A5B
:101EB4005208013A43EA0243E26A43EA0263226BAC
:101EC40043EA02730F4A53600F4B01221A60FEF774
:101ED40061FB04460B4B1B6813F0007F06D1FEF731
:101EE40059FB001B0228F5D9032006E0002004E07A
:101EF400002002E0012000E0002002B070BD0120BB
:101F0400FBE700BF00380240600047422DE9F84378
:101F1400044601680A6922F44052C36813430B6102
:101F24000168CA6822F4164222F00C028368006930
:101F3400034360690343E06903431343CB602168AF
:101F44004A6922F44072A36913434B61E369B3F510
:101F5400004F60D02368B84A934200F0148102F520
:101F64008062934200F00F81FFF7CEFA00EB80000D
:101F740000EB80006568AD00B0FBF5F5AF4FA7FB43
:101F840005356D092E01FFF7BFFA00EB800000EB69
:101F940080006568AD00B0FBF5F9FFF7B5FA00EB1A
:101FA400800000EB80006568AD00B0FBF5F5A7FB91
:101FB40005356D094FF0640808FB15952D01323580
:101FC400A7FB05356D0905F0F0053544FFF79CFACC
:101FD40000EB800000EB80006668B600B0FBF6F60C
:101FE400FFF792FA00EB800000EB800063689B002F
:101FF400B0FBF3F0A7FB0030400908FB10684FEA80
:10200400081808F13208A7FB0837C7F343172368F9
:102014002F449F600DE12368874A93425BD002F509
:102024008062934257D0FFF76FFA00EB800000EB19
:10203400800065686D00B0FBF5F5804FA7FB0535A2
:102044006D092E01FFF760FA00EB800000EB8000C1
:1020540065686D00B0FBF5F9FFF756FA00EB8000F8
:1020640000EB800065686D00B0FBF5F5A7FB053556
:102074006D094FF0640808FB1595ED003235A7FB98
:1020840005356D096D0005F4F8753544FFF73CFA24
:1020940000EB800000EB800066687600B0FBF6F68B
:1020A400FFF732FA00EB800000EB800063685B000E
:1020B400B0FBF3F3A7FB03235B0908FB13684FEAA8
:1020C400C80808F13208A7FB0837C7F3421723688A
:1020D4002F449F60ADE0FFF727FA00EB800000EB90
:1020E400800065686D00B0FBF5F5544FA7FB05351E
:1020F4006D092E01FFF718FA00EB800000EB800059
:1021040065686D00B0FBF5F9FFF70EFA00EB80008F
:1021140000EB800065686D00B0FBF5F5A7FB0535A5
:102124006D094FF0640808FB1595ED003235A7FBE7
:1021340005356D096D0005F4F8753544FFF7F4F9BC
:1021440000EB800000EB800066687600B0FBF6F6DA
:10215400FFF7EAF900EB800000EB800063685B00A6
:10216400B0FBF3F3A7FB03235B0908FB13684FEAF7
:10217400C80808F13208A7FB0837C7F342172368D9
:102184002F449F6055E0FFF7CFF900EB800000EB90
:1021940080006568AD00B0FBF5F5284FA7FB053559
:1021A4006D092E01FFF7C0F900EB800000EB800001
:1021B4006568AD00B0FBF5F9FFF7B6F900EB8000F8
:1021C40000EB80006568AD00B0FBF5F5A7FB0535B5
:1021D4006D094FF0640808FB15952D013235A7FBF6
:1021E40005356D0905F0F0053544FFF79DF900EB61
:1021F400800000EB80006668B600B0FBF6F6FFF7DF
:1022040093F900EB800000EB800063689B00B0FB57
:10221400F3F0A7FB0030400908FB10684FEA0818E8
:1022240008F13208A7FB0837C7F3431723682F4484
:102234009F60BDE8F88300BF001001401F85EB518B
:1022440058B310B5044690F839300BB3242384F8FE
:1022540039302268D36823F40053D3602046FFF753
:1022640055FE2268136923F490431361226853696D
:1022740023F02A0353612268D36843F40053D360E4
:102284000020E063202384F8393084F83A3010BD0C
:1022940080F8383001F092FBD8E70120704784B011
:1022A40010B5044603A880E80E00089B012B20D13A
:1022B400A36B23F48033A363E36823F4840323F040
:1022C4004003E360E36823F44013E3600F9B012BB6
:1022D4000AD0204600F00CFD069B012B14D00020F0
:1022E400BDE8104004B07047E36843F48013E36032
:1022F400EFE7E36843F04003E360204600F0F8FCB6
:102304004FF48033A363E7E7A36843F00603A360B5
:10231400A36843F02003A360E1E7836843F001036B
:10232400836000207047836823F0010383600020EA
:10233400704708B5C36823F0C043C360012909D0BE
:1023440019B9C36843F08043C3603220FEF728F90B
:10235400002008BDC36843F00053C360F5E70000E4
:1023640084B0F8B5044607A880E80E00A36B43F4D4
:102374000013A363119F5FB9A36B23F40013A3633A
:10238400236843F040032360236843F08003236001
:1023940025460023C4F8003E04F50066D4F800384E
:1023A400C4F800380C9B012B0BD1099B23B90021E5
:1023B400204600F0A9F808E00121204600F0A4F826
:1023C40003E00321204600F09FF81021204600F08E
:1023D40075F8204600F086F80023336173614FF0EE
:1023E400FF32B261F36108E04FF09040C2F8000997
:1023F40000220A61FF228A600133079999420BD9AE
:1024040005EB431202F51061D2F800090028EBDB5A
:102414000020C2F80009EBE7002308E04FF0904CDD
:10242400C2F800CB00220261FF228260013399428C
:102434000DD905EB431202F53060D2F800CBBCF1A4
:10244400000FEBDB4FF0000CC2F800CBEAE7336976
:1024540023F4807333610A9B012B1AD00022A261FA
:102464006FF0804262611BB9A36943F01003A3615A
:10247400A269104B1343A3610D9B1BB1A36943F0E5
:102484000803A361012F0ED00020BDE8F84004B07A
:102494007047094A3263326B42F4803242F00302DD
:1024A4003263326BDAE7A36943F0804343F00403F9
:1024B400A361E9E700383C8000018000890141F014
:1024C4002001016100230133054A934205D80269C2
:1024D40012F0200FF7D1002070470320704700BF8F
:1024E400400D03001023036100230133054A934286
:1024F40005D8026912F0100FF7D1002070470320AD
:10250400704700BF400D0300D0F800381943C0F8ED
:10251400001800207047D0F8083800F5006013F068
:10252400060F10D0836803F00603022B0DD08368D6
:1025340003F00603062B0AD0836803F00603042B7A
:1025440007D0002070470020704703207047032005
:1025540070470220704730B44B78012B22D0D0F85A
:102564001C380D780122AA4043EA0243C0F81C3803
:102574000B7800EB4310D0F8003B13F4004F0ED15E
:10258400D0F8003B8A68C2F30A02C97842EA814261
:10259400134343F0805343F40043C0F8003B00204E
:1025A40030BC7047D0F81C280D78AB409BB2134365
:1025B400C0F81C380C7800EB4410D0F8003913F440
:1025C400004FECD1D0F800398A68C2F30A02C97806
:1025D40042EA814242EA8452134343F0805343F473
:1025E4000043C0F80039DAE738B54B78012B36D010
:1025F4000B78044600EB4313D3F8002B22F400427B
:10260400C3F8002B0B7800EB43134FF00062C3F8C0
:10261400002B0B7800EB43134FF08042C3F8002BE0
:10262400002201322B4B9A4252D80B7804EB43130D
:1026340003F530639B6813F0100FF2D1D0F804381F
:1026440043F48063C0F80438D0F81C3809780122B8
:102654008A4023EA0243C0F81C38002038BD0B78B6
:10266400044600EB4313D3F8002922F40042C3F8D4
:1026740000290B7800EB43134FF00062C3F80029E4
:102684000B7800EB43134FF08042C3F8002900227B
:102694000132104B9A4219D80B7804EB431303F51B
:1026A40010639B6813F0804FF2D10D46044610214D
:1026B400FFF704FFD4F81C28297801238B409BB230
:1026C40022EA0303C4F81C380020C7E70320C5E747
:1026D4000320C3E7400D030070B582B04B78012B93
:1026E4003ED00B7800EB4313D3F8104BE40CE40416
:1026F400C3F8104B0B7800EB4313D3F8104B24F0C2
:10270400FF5424F4C014C3F8104B4B69002B40F061
:10271400D4800B7800EB4313D3F8104B8D68C5F3CA
:1027240012052C43C3F8104B0B7800EB4313D3F87A
:10273400104B44F40024C3F8104B012A00F0DC8051
:10274400CB78012B00F0DF800B7800EB4310D0F83E
:10275400003B43F00443C0F8003B002002B070BDCE
:102764004B696BBB0B7800EB4313D3F8104924F08F
:10277400FF5424F4C014C3F810490B7800EB43133E
:10278400D3F8104944F40024C3F810490B7800EB43
:102794004313D3F81049E40CE404C3F81049012AA4
:1027A40054D0CB78012B57D04B69002B54D0D0F8A0
:1027B40034380E780124B4402343C0F834384BE055
:1027C4000B7800EB4313D3F81049E40CE404C3F88A
:1027D40010490B7800EB4313D3F8104924F0FF544D
:1027E40024F4C014C3F810490C7800EB4414D4F852
:1027F40010594B698E683344013BB3FBF6F34E4EDC
:1028040006EAC3432B43C4F810390B7800EB431397
:10281400D3F810494D69C5F312052C43C3F8104988
:10282400CB78012BBBD10B7800EB4313D3F81049C1
:1028340024F0C044C3F810490B7800EB4313D3F8D9
:10284400104944F00054C3F81049A8E70B7800EB92
:1028540043130C69C3F81449CB78012B14D00B78BB
:1028640000EB4313D3F8004944F00444C3F800498F
:10287400CB78012B7FF471AF14468B8A0A78C96830
:10288400009400F00BF968E7D0F8083813F4807F5F
:1028940009D10B7800EB4313D3F8004944F00054FA
:1028A400C3F80049DBE70B7800EB4313D3F8004986
:1028B40044F08054C3F80049D1E78C682344013BB9
:1028C400B3FBF4F30C7800EB4414D4F8105B1A4E09
:1028D40006EAC3463543C4F8105B0C7800EB441495
:1028E400D4F8106B8D689BB205FB03F5C5F3120594
:1028F4003543C4F8105B20E7CA680B7800EB431338
:10290400C3F8142B1CE7D0F8083813F4807F09D1DE
:102914000B7800EB4313D3F8002B42F00052C3F8BA
:10292400002B11E70B7800EB4313D3F8002B42F094
:102934008052C3F8002B07E70000F81F30B44B782F
:10294400012B39D00B7800EB4313D3F8104BE40C74
:10295400E404C3F8104B0B7800EB4313D3F8104B8B
:1029640024F0FF5424F4C014C3F8104B4B690BB18A
:102974008B684B610B7800EB4313D3F8104B44F492
:102984000024C3F8104B0B7800EB4313D3F8104B1F
:102994008D68C5F312052C43C3F8104B012A76D079
:1029A4000B7800EB4310D0F8003B43F00443C0F82D
:1029B400003B002030BC70474B699BBB0B7800EB9D
:1029C4004313D3F8104924F0FF5424F4C014C3F87B
:1029D40010490B7800EB4313D3F8104944F4002456
:1029E400C3F810490B7800EB4313D3F81049E40CF7
:1029F400E404C3F810490B7800EB4313D3F80049FF
:102A040044F00444C3F80049012A39D04B69002B2F
:102A1400CFD0D0F83438097801228A401343C0F863
:102A24003438C6E70B7800EB4313D3F81049E40CB1
:102A3400E404C3F810490B7800EB4313D3F81049AE
:102A440024F0FF5424F4C014C3F810494C698B6873
:102A54009C4200D94B610B7800EB4313D3F8104927
:102A640044F40024C3F810490B7800EB4313D3F863
:102A740010494D69C5F312052C43C3F81049BAE750
:102A84000B7800EB43100B69C0F8143991E7CA685E
:102A94000B7800EB4313C3F8142B81E770B49DF853
:102AA4000C4064B903339D0807E000EB023303F5DF
:102AB400805351F8046B1E600134AC42F5D30020FE
:102AC40070BC704703329208002393420CD210B4B6
:102AD40000F58054246841F8044B01339342F7D342
:102AE40008465DF8044B7047084670474B78012B45
:102AF40017D00B7800EB4313D3F8002B002A05DB27
:102B0400D3F8002B22F08042C3F8002B0B7800EBA3
:102B14004310D0F8003B43F40013C0F8003B0020FE
:102B240070470B7800EB4313D3F80029002A05DB28
:102B3400D3F8002922F08042C3F800290B7800EB77
:102B44004310D0F8003943F40013C0F80039E6E725
:102B54004B78012B0FD00B7800EB4313D3F8002BE9
:102B640022F40012C3F8002BCB78023BDBB2012B1A
:102B740019D9002070470B7800EB4313D3F80029D0
:102B840022F40012C3F80029CB78023BDBB2012BFC
:102B9400EFD80B7800EB4310D0F8003943F08053A2
:102BA400C0F80039E5E70B7800EB4310D0F8003BA0
:102BB40043F08053C0F8003BDBE7D0F8003823F43F
:102BC400FE63C0F80038D0F80038090101F4FE6152
:102BD4000B43C0F800380020704708B5D0F804381B
:102BE40023F00203C0F804380320FDF7D9FC0020C9
:102BF40008BD08B5D0F8043843F00203C0F804381F
:102C04000320FDF7CDFC002008BD42698069104017
:102C14007047D0F8183800F50060C0691840000CFF
:102C24007047D0F8183800F50060C069184080B2C9
:102C3400704700EB4111D1F8082B00F500604069A2
:102C44001040704710B4D0F81048D0F83438CB4056
:102C5400DB01DBB2234300EB411000F51060806818
:102C640018405DF8044B7047406900F0010070475C
:102C7400D0F8003923F4FF6323F00703C0F80039C8
:102C840000F500639A6802F00602042A05D05A6827
:102C940042F480725A6000207047D0F8002942F054
:102CA4000302C0F80029F2E710B40024C0F8104B66
:102CB400D0F8104B44F40024C0F8104BD0F8104B5B
:102CC40044F01804C0F8104BD0F8104B44F0C04442
:102CD400C0F8104B012903D000205DF8044B704765
:102CE400C0F8142B4FF08023C0F8003BF4E7000039
:102CF400002301330C4A934211D80269002AF8DAFE
:102D0400036943F00103036100230133064A93423C
:102D140007D8026912F0010FF7D100207047032091
:102D240070470320704700BF400D0300D0F81832ED
:102D34001BB10020C3F8140270470220704710B57D
:102D4400D0F81842D0F81C325BB194F80002FF2886
:102D540007D09B6894F8012221469847FF2384F802
:102D64000032002010BD0000432303800048704758
:102D74000800002043230380004870474C000020D3
:102D84004323038000487047900000200A230380F7
:102D940000487047D400002038B50446D0F81852D3
:102DA40001F04EF8C5F80C02D4F818324BB1D4F83F
:102DB4001C32DB6805F50371D5F80402984700203E
:102DC40038BD0220FCE7000070B505460C46D0F87B
:102DD40018620B7813F0600225D0202A07D1CA8824
:102DE4003AB9D0F81C329B680022487898470020F2
:102DF40070BD13F0800F0BD0D0F81C329B683146A5
:102E040060789847E2883146284600F08DFCEEE76A
:102E14004B7886F80032CB8886F80132CA8831466E
:102E240000F097FCE3E74B780A2BE0D1012202493A
:102E340000F07AFCDBE700BFF001002010B5044687
:102E4400812100F092FF0121204600F08EFF8221B3
:102E5400204600F08AFFD4F8183253B1D4F81C325B
:102E64005B689847D4F8180201F0E0F80023C4F82E
:102E74001832002010BD38B50446037C73BB4FF4F0
:102E840000730222812100F05FFF4FF400730222DD
:102E94000121204600F058FF082303228221204606
:102EA40000F052FF4FF4077001F0B8F80546C4F87B
:102EB400180248B3D4F81C321B6898470023C5F89D
:102EC4001432C5F81832237CA3B14023D5F8042268
:102ED4000121204600F0A6FF002038BD4023022235
:102EE400812100F031FF402302220121204600F01D
:102EF4002BFFD1E74FF40073D5F8042201212046BB
:102F040000F090FF0020E8E70120E6E719B1C0F8DF
:102F14001C120020704702207047D0F81832C3F802
:102F24000812C3F8102200207047D0F81832C3F8F2
:102F3400041200207047D0F818228AB108B5D2F8DC
:102F440014320BB1012008BD0123C2F81432B2F8C7
:102F54001032D2F80822812100F056FF0020F2E757
:102F640002207047D0F818229AB108B5037C3BB10F
:102F74004023D2F80422012100F054FF002008BDB0
:102F84004FF40073D2F80422012100F04BFF00201B
:102F9400F5E70220704798B108B50346D0F814024B
:102FA40010B10020C3F8140209B1C3F81012184676
:102FB400012380F8FC31027000F084FE002008BD7B
:102FC4000220704719B1C0F8141200207047022083
:102FD400704708B500F0AAFE002008BD08B5D0F877
:102FE400143233B11B68984708B9002008BD022089
:102FF400FCE70220FAE708B5D0F814325B6898477A
:10300400002008BD38B5044600F50275284600F0D6
:103014001DF90123C4F8F431B4F80E32C4F8F831C0
:1030240094F8081201F01F03012B0ED03BB1022BC0
:1030340010D001F08001204600F0A5FE03E02946EF
:10304400204600F088FA002038BD2946204600F0CA
:10305400A6FAF8E72946204600F0BDFAF3E710B5D2
:10306400044621BB1346D0F8F421032A01D00020E2
:1030740010BDD0F80C11D0F8102191420CD8D0F822
:1030840014321B6923B190F8FC21032A00D198471C
:10309400204600F075FBEAE7891AC0F80C118A4251
:1030A40028BF0A4692B2194600F062FBDFE70A46DF
:1030B400D0F814329B69002BD9D090F8FC11032965
:1030C400D5D111469847D2E710B50446002946D118
:1030D4001346D0F8F421022A05D094F80032012BCB
:1030E40039D0002010BDC169026A914219D88169A2
:1030F400B1FBF2F302FB13132BB98A4203D8D0F8C5
:10310400F83199421AD3D4F81432DB682BB194F80D
:10311400FC21032A01D120469847204600F03BFBBE
:10312400DBE78A1AC26192B2194600F00AFB002357
:103134001A461946204600F075FECEE700221146D5
:1031440000F0FFFA0021C4F8F8110B460A462046A5
:1031540000F068FEC1E7002384F80032C1E70A46A4
:10316400D0F814325B69002BBBD090F8FC11032912
:10317400B7D111469847B4E738B504464023002236
:10318400114600F0E1FD4025C4F810512B46002201
:103194008021204600F0D8FD2562012384F8FC310B
:1031A400D4F818322BB1D4F814325B682179204654
:1031B4009847002038BD01740020704790F8FC3116
:1031C40080F8FD31042380F8FC310020704790F82A
:1031D400FD3180F8FC310020704708B590F8FC31CF
:1031E400032B01D0002008BDD0F81432DB69002B7A
:1031F400F8D09847F6E70020704700207047002079
:10320400704708B5012280F8FC21D0F814225268D6
:1032140001799047002008BD002302E00133DBB2AE
:1032240001300278002AF9D1184670474B88012BE7
:103234000BD110B50446C0F80432D0F814329B68A0
:103244009847204600F09CFA10BD70470B78037035
:103254004B7843708B78CA7803EB022343800B7955
:103264004A7903EB022383808B79CA7903EB022327
:10327400C380704710B50446802100F084FD00210E
:10328400204600F080FD10BD30B583B004460D46E5
:103294004A88130A013B0E2B00F28D80DFE803F00D
:1032A400171F338B8B6F7C8B8B8B8B8B8B8B0800DB
:1032B400D0F81032DB690DF10601007C9847BDF8A7
:1032C400062012B1EB88002B79D103B030BDD0F8C1
:1032D40010321B680DF10601007C9847EFE7037C70
:1032E40043B9D0F814329B6A0DF1060098470223C3
:1032F4004370E4E7D0F81432DB6A0DF10600984716
:1033040002234370DBE7D2B2052A34D8DFE802F0A7
:10331400030B131B232BD0F810325B680DF106014D
:10332400007C9847CBE7D0F810329B680DF106017A
:10333400007C9847C3E7D0F81032DB680DF1060132
:10334400007C9847BBE7D0F810321B690DF10601E9
:10335400007C9847B3E7D0F810325B690DF10601A1
:10336400007C9847ABE7D0F810329B690DF1060159
:10337400007C9847A3E72946FFF77CFFA5E7037C79
:1033840033B9D0F814325B6B0DF10600984796E719
:103394002946FFF76FFF98E7037C43B9D0F814324E
:1033A4001B6B0DF1060098470723437087E72946F6
:1033B400FFF760FF89E72946FFF75CFF85E79A423C
:1033C40028BF1A46ADF806200146204600F0ACF9A5
:1033D4007BE738B504468B88E3B9CB88D3B98D78BD
:1033E40005F07F0590F8FC31032B0CD080F8FE51DA
:1033F400294600F0FBFC204600F0C2F935B1022357
:1034040084F8FC3109E0FFF735FF06E0012384F876
:10341400FC3102E02046FFF72DFF38BD38B50446E5
:103424000D468978254B1970012909D890F8FC318B
:10343400022B09D0032B1CD02946FFF71BFF02E007
:103444002946FFF717FF38BD81B14160032380F897
:10345400FC31FFF7C3FD022803D0204600F090F9A9
:10346400F1E729462046FFF705FFECE700F088F96D
:10347400E9E789B1436899421DD0D9B2FFF7BBFD92
:103484000E4B197861602046FFF7A8FD02280DD085
:10349400204600F075F9D6E7022380F8FC3141603C
:1034A400FFF7A9FD204600F06BF9CCE7294620463A
:1034B400FFF7E0FEC7E700F063F9C4E7F10100207D
:1034C40008B5CB88012B08D190F8FC31022B07D02A
:1034D400032B0DD0FFF7CEFE01E0FFF7CBFE08BDB6
:1034E4000146002341F8083F012200F01DF9F6E7E8
:1034F4000122011D00F018F9F1E708B590F8FC313C
:10350400023B012B0CD80123C360D0F804320BB169
:103514000323C360022200F10C0100F005F908BD89
:10352400FFF7A8FEFBE710B5044690F8FC31023B18
:10353400012B0DD84B88012B09D10023C0F804328C
:10354400D0F814329B689847204600F019F910BD52
:10355400FFF790FEFBE708B54B78092B1CD8DFE892
:1035640003F012181B151B09051B0F0CFFF78CFE2B
:10357400002008BDFFF72DFFFAE7FFF74FFFF7E73D
:10358400FFF79EFFF4E7FFF7B8FFF1E7FFF74EFE02
:10359400EEE7FFF7C8FFEBE7FFF76CFEE8E738B5A7
:1035A40004460D4690F8FC31032B11D10B79012B05
:1035B4000BD8D0F814329B689847EB880BB10020E5
:1035C40038BD204600F0DCF8F9E7FFF753FEF6E7D4
:1035D400FFF750FEF3E738B505460C468A880B78AA
:1035E40003F06003202B05D1D0F814329B68984770
:1035F400002038BDD1B26378012B25D0002B47D0F1
:10360400032BF5D190F8FC31022B05D0032B0AD003
:103614002146FFF72FFEEBE70029E9D08029E7D008
:1036240000F0B1FBE4E7638823B919B1802901D024
:1036340000F0A9FBD5F814329B6821462846984728
:10364400284600F09DF8D3E790F8FC31022B05D012
:10365400032B0AD02146FFF70DFEC9E70029C7D086
:103664008029C5D000F08FFBC2E76388002BBFD14F
:1036740011F07F0F03D1284600F082F8B8E700F07C
:1036840090FBD5F814329B68214628469847F2E708
:1036940090F8FC31022B05D0032B09D02146FFF70B
:1036A400E9FDA5E711F07F0FA2D000F06CFB9FE7C6
:1036B40012F0800F11D101F07F04103400EB0414D8
:1036C4000434284600F07BFB70B1012323600222FE
:1036D4002146284600F028F88AE701F07F040134E7
:1036E40000EB04140434ECE700232360EFE7D0B1CB
:1036F40070B50D4616460446FFF78EFD01304000B6
:1037040080B23080287003236B70022307E00134F9
:103714005A1CD2B2E9540233DBB20021A9542178F5
:103724000029F4D170BD704710B513460222C0F8C9
:10373400F4218361C3610A46002100F065FB002087
:1037440010BD08B513460A46002100F05DFB0020B9
:1037540008BD10B513460322C0F8F421C0F808319F
:10376400C0F80C310A46002100F05CFB002010BDBB
:1037740008B513460A46002100F054FB002008BD9A
:1037840008B50423C0F8F43100231A46194600F0A2
:103794003BFB002008BD08B50523C0F8F431002325
:1037A4001A46194600F03EFB002008BD30B58BB028
:1037B4000024059406940794089409940194224BD8
:1037C4001A6B42F004021A631A6B02F004020192AB
:1037D400019A02941A6B42F080021A631A6B02F087
:1037E40080020292029A03941A6B42F001021A6355
:1037F4001A6B02F001020392039A04941A6B42F0CA
:1038040002021A631B6B03F002030493049B0F4D23
:10381400224620212846FDF71DF84FF40053059356
:103824000B4B0693079405A90A48FCF735FF2023A0
:103834000593012306930794089405A92846FCF7E9
:103844002BFF0BB030BD00BF003802400000024027
:10385400000021100008024008B50848084B036026
:103864004FF4E133436000238360C36003610C229F
:1038740042618361C361FEF7E3FC08BD8802002056
:1038840000440040F0B5ADB0342200211FA800F080
:10389400D5FB00241A941B941C941D941E945C2242
:1038A400214603A800F0CAFB0194264B1A6C42F08F
:1038B40080521A641B6C03F080530193019B0294A1
:1038C400214B1A6842F440421A601B6803F44043D7
:1038D4000293029B01271F974FF480332093022504
:1038E40025954FF480032693082627964FF4B47346
:1038F400289329952A962B951FA8FEF725F9FDF7FD
:1039040011FD0F231A931B951C944FF4A0531D9380
:103914004FF480531E9305211AA8FDF743FD4FF47D
:10392400807303930996C0230A930C9504230B9385
:103934000E974FF00063189303A8FDF705FE2DB012
:10394400F0BD00BF003802400070004008B5FCF72D
:10395400FBFDFFF797FFFFF729FFFFF77DFF00F05F
:10396400A1F86420FCF71CFE0521024800F0F4F8DD
:10397400F7E700BF3C4200087047000000B583B081
:10398400002100910C4B5A6C42F480425A645A6CE8
:1039940002F480420092009A01911A6C42F0805223
:1039A4001A641B6C03F080530193019B0720FCF7FE
:1039B4000BFE03B05DF804FB0038024000B589B08B
:1039C4000023039304930593069307930268164B0D
:1039D4009A4202D009B05DF804FB0021019103F57D
:1039E400FA331A6C42F400321A641A6C02F400328C
:1039F4000192019A02911A6B42F001021A631B6B45
:103A040003F001030293029B0C2303930223049308
:103A140001230593032306930723079303A903486C
:103A2400FCF73AFED6E700BF004400400000024025
:103A34007047FEE7FEE7FEE7FEE770477047704712
:103A440008B5FCF79BFD08BD08B50248FCF7EAFF82
:103A540008BD00BFEC1400200F49D1F8883043F4AE
:103A64007003C1F888300D4B1A6842F001021A60E5
:103A7400002098601A6822F0847222F480321A605E
:103A8400074A5A601A6822F480221A60D8604FF0FC
:103A940000638B60704700BF00ED00E00038024017
:103AA4001030002410B5094C002209492046FFF7C4
:103AB40072FA08492046FFF785FA07492046FFF7BE
:103AC40025FA2046FFF785FA10BD00BFC802002082
:103AD40050010020E00000201C010020002070475D
:103AE4000020704770B504460E460E4D0146284628
:103AF400FFF71BFA2846FFF735FA002304E00A4AC9
:103B04000021D1540133DBB23F2BF8D932680132A2
:103B14002146054800F052FB044B01221A70002094
:103B240070BD00BFC802002048020020F20100203E
:103B340010B5064C002206492046FFF7EEF9054968
:103B44002046FFF7F2F9002010BD00BFC802002094
:103B5400EC0C0020EC040020094BD3F81832D3F805
:103B640014320BB10120704710B50A460146044CCB
:103B74002046FFF7D2F92046FFF7DDF910BD00BF5C
:103B8400C80200200368B3F1A04F00D0704710B5FD
:103B940086B04FF4C053019302230293002403948C
:103BA400032304930A23059301A90E48FCF774FD2B
:103BB4000D4B5A6B42F080025A6300945A6C42F4E3
:103BC40080425A645B6C03F480430093009B22465A
:103BD40021464320FCF70AFD4320FCF73BFD06B0D9
:103BE40010BD00BF000002400038024008B500F5D7
:103BF4006F71D0F8F803FFF705FA08BD08B5C1EBFB
:103C0400C10293000344D3F80422D0F8F803FFF769
:103C140026FA08BD08B5C1EBC102930003445A6CEF
:103C2400D0F8F803FFF750FA08BD08B5D0F8F80348
:103C3400FFF7D3FA08BD10B50446C3684BB10121A0
:103C4400D4F8F803FFF7B7FAD4F8F803FFF794FAB7
:103C540010BD0021F4E7000010B50446D0F8F803C5
:103C6400FFF7ACFA2268D2F8003E43F00103C2F831
:103C7400003E236A23B1034A136943F00603136128
:103C840010BD00BF00ED00E008B5D0F8F803FFF761
:103C94009EFA08BD08B5D0F8F803FFF7AEFA08BDE0
:103CA40008B5D0F8F803FFF7A6FA08BD08B5D0F8B0
:103CB400F803FFF7A4FA08BD08B5D0F8F803FFF736
:103CC400A0FA08BD03780BB10020704710B5034675
:103CD4001548C0F8F833C3F820024FF0A04303603E
:103CE400062343600222C2600023036143618261B0
:103CF400C36103624362C3620363FCF707FE80B9D6
:103D0400094C80212046FDF7F5FA40220021204687
:103D1400FDF7CCFA802201212046FDF7C7FA0020E6
:103D240010BDFFF729FEEBE7EC14002008B5D0F82E
:103D34002002FCF762FE18B1022803D0022008BD5D
:103D44000020FCE70120FAE710B51C461346224682
:103D5400D0F82002FDF78EF918B1022803D0022012
:103D640010BD0020FCE70120FAE708B5D0F82002D6
:103D7400FDF7B4F918B1022803D0022008BD0020D1
:103D8400FCE70120FAE708B5D0F82002FDF730FA85
:103D940018B1022803D0022008BD0020FCE701204E
:103DA400FAE708B5D0F82002FDF755FA18B1022851
:103DB40003D0022008BD0020FCE70120FAE7D0F878
:103DC400203211F0800F08D101F07F01C1EBC10155
:103DD4008A00134493F8FA01704701F07F01C1EBA4
:103DE400C1018A00134493F83A00704708B5D0F82B
:103DF4002002FDF72DF918B1022803D0022008BDD6
:103E04000020FCE70120FAE708B5D0F82002FDF70E
:103E1400C6F918B1022803D0022008BD0020FCE72F
:103E24000120FAE708B5D0F82002FDF782F918B1AD
:103E3400022803D0022008BD0020FCE70120FAE795
:103E440008B5D0F82002FDF7A1F908BD10B5044665
:103E540011B1012916D010BD036A5BB92268D2F8EA
:103E6400003E23F00103C2F8003ED4F8F803FFF744
:103E7400AEF9F0E7FFF706FD0C4A136923F00603D9
:103E84001361EBE70268D2F8003E43F00103C2F885
:103E9400003ED0F8F803FFF791F9236A002BDAD03B
:103EA400024A136943F006031361D4E700ED00E00E
:103EB40012230B80004870472C01002004230B8040
:103EC40000487047400100200C230B8000487047D5
:103ED4004401002008B50A4628B105490548FFF702
:103EE40006FC034808BD02490248FFF700FCF8E756
:103EF400E81800204442000810B5044C0A46214644
:103F04000348FFF7F4FB204610BD00BFE81800206B
:103F14005C42000808B50A4628B105490548FFF780
:103F2400E6FB034808BD02490248FFF7E0FBF8E757
:103F3400E81800207042000808B50A4628B105496F
:103F44000548FFF7D4FB034808BD02490248FFF7C0
:103F5400CEFBF8E7E81800208042000808B50A46BE
:103F640028B105490548FFF7C2FB034808BD0249CB
:103F74000248FFF7BCFBF8E7E81800208C42000871
:103F8400DFF834D0002103E00C4B5B58435004317C
:103F94000B480C4B42189A42F6D30B4A02E000231A
:103FA40042F8043B094B9A42F9D3FFF755FD00F060
:103FB40011F8FFF7CBFC704700000220AC42000868
:103FC40000000020D4010020D4010020EC1A0020BD
:103FD400FEE7000070B50D4E0D4CA41BA410002587
:103FE400A54209D10B4E0C4C00F00EF9A41BA410F1
:103FF4000025A54205D170BD56F8253098470135F6
:10400400EEE756F8253098470135F2E7A442000858
:10401400A4420008A4420008A8420008024B01463A
:10402400186800F061B800BF70010020024B01461F
:10403400186800F00BB800BF70010020024403466A
:10404400934200D1704703F8011BF9E738B50546E0
:10405400002945D051F8043C0C1F002BB8BFE418CC
:1040640000F0C1F81F4A1368104633B96360146046
:104074002846BDE8384000F0B7B8A3420CD92168FF
:104084006218934204BF1A685B68636004BF5218E5
:1040940022600460ECE713465A680AB1A242FAD9D6
:1040A40019685818A0420BD120680144581882425C
:1040B4001960DDD1106852685A6001441960D7E76D
:1040C40002D90C232B60D3E7206821188A4204BF4D
:1040D40011685268626004BF091821605C60C7E718
:1040E40038BD00BFF801002070B5CD1C25F00305D4
:1040F40008350C2D38BF0C25002D064601DBA942DE
:1041040003D90C233360002070BD00F06CF8214A01
:104114001468214691B9204C23681BB9304600F03D
:104124003DF820602946304600F038F8431C24D17D
:104134000C233360304600F057F8E4E70B685B1B50
:1041440018D40B2B0FD90B60CD50CC18304600F08F
:104154004BF804F10B00231D20F00700C31AD3D041
:104164005A42E250D0E78C424B6816BF636013603A
:104174000C46EBE70C464968CCE7C41C24F0030466
:10418400A04205D0211A304600F008F80130CFD003
:104194002560DBE7F8010020FC01002038B5064C5F
:1041A400002305460846236000F020F8431C02D192
:1041B400236803B12B6038BDE81A002010B50B4604
:1041C40062B1013A08D013F8014B00F8014B002CFE
:1041D400F7D1581A013810BD0022027013F8012BD0
:1041E400002AFBD1F5E7704770470000044A0549EF
:1041F4001368002B08BF0B4618441060184670471C
:1042040000020020F01A0020F8B500BFF8BC08BC7A
:104214009E467047F8B500BFF8BC08BC9E46704780
:104224000000000000000000010203040607080962
:104234000000000001020304746573740A000000A6
:1042440053544D3332205669727475616C20436F38
:104254006D506F727400000053544D6963726F6542
:104264006C656374726F6E69637300003030303054
:1042740030303030303031410000000043444320BE
:10428400436F6E666967000043444320496E74655A
:08429400726661636500000021
:08429C0098BFFF7F0100000044
:0442A400E901000824
:0442A800C501000844
:1042AC00010000001000000009024300020100C0E0
:1042BC00320904000001020201000524001001056E
:1042CC0024010001042402020524060001070582D2
:1042DC000308001009040100020A00000007050190
:1042EC000240000007058102400000000902430063
:1042FC00020100C032090400000102020100052481
:10430C00001001052401000104240202052406000A
:10431C00010705820308001009040100020A0000CD
:10432C0000070501020002000705810200020000DF
:10433C0009074300020104C0320904000001020213
:10434C0001000524001001052401000104240202CF
:10435C000524060001070582030800FF090401007B
:10436C00020A000000070501024000000705810257
:10437C00400000000A06000200000040010000009E
:10438C007B2E0008412E0008CD2D000800000000F7
:10439C00432D0008312D00089D2D00080000000061
:1043AC000000000000000000792D00086D2D0008B1
:1043BC00852D0008912D00080024F400353B0008E1
:1043CC00E13A0008E53A0008E93A00081201010256
:1043DC000202004083044057000201020301000066
:1043EC0004030904050F0C00010710020200000071
:1043FC00B53E0008C13E0008FD3E0008D93E00084D
:10440C00193F00083D3F0008613F0008CD3E000801
:10441C0074010020000000000000000000000000FB
:10442C000000000000000000000000000000000080
:10443C000000000000000000000000000000000070
:10444C000000000000000000000000000000000060
:10445C000000000000000000000000000000000050
:10446C000000000000000000000000000000000040
:04447C00000000003C
:0400000508003F852B
:00000001FF
